:020000040000FA
:10000000C81900024D02000055020000570200000E
:1000100000000000000000000000000000000000E0
:10002000000000000000000000000000A901000026
:100030000000000000000000ED010000510F000072
:100040006102000061020000610200006102000024
:100050006102000061020000610200006102000014
:100060006102000061020000610200006102000004
:1000700061020000610200006102000061020000F4
:1000800061020000610200006102000061020000E4
:1000900061020000610200006102000061020000D4
:1000A000410F0000610200006102000061020000D7
:1000B00061020000610200006102000061020000B4
:1000C00061020000610200006102000061020000A4
:1000D0006102000061020000610200006102000094
:1000E0006102000061020000610200006102000084
:1000F00061020000610200006102000000F002F8ED
:1001000000F043F80AA090E8000C82448344AAF16E
:100110000107DA4501D100F038F8AFF2090EBAE86C
:100120000F0013F0010F18BFFB1A43F0010318472B
:1001300090170000B0170000103A24BF78C878C1AB
:10014000FAD8520724BF30C830C144BF04680C60DD
:10015000704700000023002400250026103A28BF25
:1001600078C1FBD8520728BF30C148BF0B60704729
:10017000642900F09781002070471FB59DE80300B7
:1001800000F0F4F91FBD10B510BD00F018FB1146CA
:10019000FFF7F3FF00F02CFF00F036FB03B4FFF78E
:1001A000F2FF03BC00F0F0FE204B19680868B0E8CD
:1001B000F00F80F30988BFF36F8F4FF0000080F3DA
:1001C00011884EF00D0E70470000000006480068D0
:1001D000006880F3088862B661B6BFF34F8FBFF343
:1001E0006F8F00DF00BF00BF08ED00E0EFF3098074
:1001F000BFF36F8F0D4B1A6820E9F00F106008B540
:100200004FF0A00080F3118801F06AF94FF0000070
:1002100080F31188BDE8084019680868B0E8F00F5D
:1002200080F30988BFF36F8F704700BF040000029E
:10023000EFF311804FF0A00181F31188704780F334
:1002400011887047EFF30580704700000848804729
:1002500008480047FEE7FEE7FEE7FEE7FEE7FEE7A9
:10026000FEE7000004480549054A064B70470000B8
:10027000850F0000FD000000C8010002C81900023F
:10028000C8110002C811000270B5064600F052F90C
:10029000056806F10B0020F00704B4429CBF002063
:1002A00070BD2B466A68BAB11068A04210D304F141
:1002B000080188423CBF5068586007D35168101944
:1002C00041601168091B016058601460101D70BD09
:1002D00013465268002AE7D12146284600F032F939
:1002E0000028DED170BD70B50446051F00F022F96C
:1002F0000068002C14BF446870BD002C18BFAC42CD
:100300003CBF20466468F8D301680A18AA4218BFA7
:10031000456003D12A6805461144016028684119E7
:10032000A1421CBF6C6070BD6168696021680844AF
:10033000286070BD53EA020C00F069802DE9F04B93
:100340004FF00006002B1FBFB3FA83F503FA05F444
:1003500024FA05F65E4012BF1643B2FA82F502FA9D
:1003600005F4C5F120051EBF22FA05FC44EA0C0481
:10037000203556EA044C4FEA144418BF641C4FF071
:1003800000084FF00009904271EB030C39D30029AB
:1003900019BFB1FA81F701FA07F6B0FA80F700FA4F
:1003A00007F6C7F120071EBF20FA07FC46EA0C0635
:1003B0002037B6FBF4FCA7EB0507103F07F01F0B37
:1003C000CBF120060CFA0BFB2CFA06F644BFB34621
:1003D0000026202FA4BF5E464FF0000B5BEA060C00
:1003E00008BF4FF0010B19EB0B09ABFB027C48EB8C
:1003F0000608C01B06FB02CC0BFB03CC71EB0C0107
:10040000C1E70B46024641464846BDE8F08B13B5AE
:100410004FF000004FF00001AFF30080BDE81C403A
:10042000704700000FB4044910B503AA029800F009
:100430002DF910BC5DF814FB500000022DE9F041CD
:100440000E460446002020622046E168884730B30B
:10045000252805D0D4E901219047206A401CF2E705
:10046000E168204600278847050018D0A5F1410023
:10047000192802D820354FF4006732462946204615
:100480002760FFF775FE40B1012804D0F61D26F065
:1004900007060836D8E7361DD6E72846DAE7206A89
:1004A000BDE8F0812DE9F041064600241068752969
:1004B000314616A510D0AFF30080002802DA404282
:1004C00013A507E031688A0701D512A502E04907A4
:1004D00004D511A5012401E0AFF3008000210A2218
:1004E00006F1240709E0B0FBF2FCB0FBF2F302FBDB
:1004F0001C00303078541846491C0028F3D123469C
:100500002A463046BDE8F04100F066B80000000021
:100510002D0000002B0000002000000002F0FF036F
:1005200043EA032242EA024200F0C4B8704770472F
:100530007047000000487047700100027047704724
:100540007047704738B504460A4600206946AFF345
:100550000080002808BF38BD02460099204600F000
:10056000CDF8012038BD012000F0FAB8F8B5AFF39E
:100570000080054600200C46102000BF0646A81942
:10058000A0420DD9324669460020AFF30080070033
:1005900008BF00F0E5F80098A04218BF0546C4194E
:1005A000FFF7C8FF05600746F01D20F00700461959
:1005B000284600F00AF8B44208BFF8BDA21B314635
:1005C0003868BDE8F84000F099B800210160C0E942
:1005D00001107047102070472DE9F0470D469946ED
:1005E0009246044600F124080168880604D5E069B3
:1005F00021F01001216000E00120A84201DD471B2D
:1006000000E00027A1697A1902EB0900081AA0612D
:100610002078C00602D42046AFF30080002608E010
:10062000D4E901211AF806009047206A401C761C84
:1006300020624E45F4DB2078C0060AD52046AFF391
:10064000008006E0D4E9012130209047206A401C58
:100650002062381EA7F10107F4DC07E0D4E901218C
:1006600018F805009047206A401C2062281EA5F15A
:100670000105F3DC2046AFF300802078000602D5A8
:100680000220BDE8F0870120FBE70000074B70B5B2
:100690000D467B4400F051F80446284600F08EFCDD
:1006A00010B14FF0FF3070BD204670BD2D09000025
:1006B0004FF000020429C0F0128010F0030C00F08B
:1006C0005880CCF1040CBCF1020F18BF00F8012BCC
:1006D000A8BF20F8022BA1EB0C0100F04AB85FEA9A
:1006E000C17C24BF00F8012B00F8012B48BF00F8A3
:1006F000012B7047004870476801000203464068BC
:100700008C46002818BF88423CBF03464068F8D397
:1007100018681844884207D00CF1030020F0070045
:10072000001D411A521A0146081D0A60FFF7DBBD81
:1007300001694A1C02610878704700B58FB0CDE9A5
:1007400001310021059105497944CDE90310114695
:100750006846FFF773FE0FB000BD0000E5FFFFFF26
:1007600010B500F05FF8BDE8104000F056B84FF04B
:10077000000200B5134694469646203922BFA0E8F1
:100780000C50A0E80C50B1F12001BFF4F7AF0907FD
:1007900028BFA0E80C5048BF0CC05DF804EB8900EE
:1007A00028BF40F8042B08BF704748BF20F8022B31
:1007B00011F0804F18BF00F8012B70477047754645
:1007C000FFF798FFAE4605006946534620F0070044
:1007D000854618B020B5FFF745FDBDE820404FF035
:1007E00000064FF000074FF000084FF0000B21F01B
:1007F0000701AC46ACE8C009ACE8C009ACE8C009E8
:10080000ACE8C0098D46704710B50446AFF30080D0
:100810002046BDE81040FFF7C1BC002801D000F021
:10082000B3BB704710B5012805D0002103A000F02C
:1008300021F8012010BD09A1F8E7000053494752F3
:10084000544D454D3A204F7574206F6620686561A0
:1008500070206D656D6F7279000000003A20486568
:100860006170206D656D6F727920636F7272757043
:100870007465640070B505460C460A2000E06D1CE6
:1008800000F011F835B128780028F8D102E0641C96
:1008900000F009F814B120780028F8D1BDE87040C4
:1008A0000A20AFF3008008B569468DF800000320E8
:1008B000ABBE08BD154910B58020486388640D2281
:1008C0000021012000F074FA00211222084600F0F5
:1008D0006FFA00F0BFF8002100F064F90C4C2046DC
:1008E00000F0E8FA206820F07C0040F0040020606E
:1008F0004FF4E131204600F017FB206840F0010082
:100900002060606820F04000606010BD00800F40F3
:10091000000004402DE9F041FFF7CCFF4FF0E05418
:10092000204600F075F90C4E0021F71E0123725C81
:10093000785C04EB820202F50052156803FA00F0BD
:1009400005431560705C7A5C04EB40108354491CCD
:100950000329ECDBBDE8F0812F18000010B5032857
:100960000BD2064A054C4FF0E053E41E125C205CAB
:1009700003EB421281F00101115410BD2F18000049
:1009800010B500F065FA0B4C0120C4F8A400032058
:10099000012161F39F10C4F8A001C80500F04AFAD4
:1009A000D4F8A401C0F300000028F9D00120C4F855
:1009B000CC0010BD0040074070B50D2000F03AF8A3
:1009C0000C2000F037F80D24204600F0F7F92046FF
:1009D00000F006FA1D220A490A4800F0B6F9084D4F
:1009E0000024083D35F81410C8B2C1F34122C90AE9
:1009F00001EB421100F0CAF9641C032CF2D370BD64
:100A00004C18000000800F4010B5FFF7D5FFFFF72E
:100A1000B7FF02490120C1F8CC0010BD00400740DB
:100A200001B501226946024800F06CFA08BD0000D9
:100A30000000044006490122202803D351F8C83F92
:100A4000203801E051F8C43F824013430B607047E7
:100A5000004007400448D0F8840010F0FF0F01D098
:100A600000F01EB800F002B800400740084900201E
:100A7000D1F8801011F0FF0105D0012905D002291D
:100A800000D1044870470448704704480068704724
:100A900000400740D8AC0700001BB7002418000036
:100AA0000A490020D1F8841011F0FF0108D0012973
:100AB00008D0022908D0032901D1054800687047F1
:100AC000FFF7D4BF00F028B800F02EB80040074070
:100AD0002818000000F03F02521C01FB02F0704792
:100AE00010F0030003D0012803D000207047024813
:100AF0007047024800687047001BB70024180000C8
:100B000010B5FFF7A7FF0349D1F8C010B0FBF1F013
:100B100010BD0000004007400248D0F8A000FFF7D9
:100B2000DFBF00000040074010B5FFF7F5FF0146AA
:100B30000348D0F89801BDE81040FFF7CBBF000094
:100B40000040074070B50E4DD5F8D040ACB1FFF76E
:100B500081FFB0FBF4F0D5F82811002389B2CA4315
:100B600012F0FF0F08D10A0A190241EA10610002CF
:100B700002F58072FFF7DEFB70BD002070BD000043
:100B8000004007400649042804D3001FC0B2C1F842
:100B90008400704741F8800F0020486070470000D3
:100BA0000040074070B50E460446FFF753FFB0FB08
:100BB000F4F303B901230E4DD9B2C5F8D0100021CA
:100BC0007EB104FB130004FB03F2010E00020023BC
:100BD000FFF7B0FB0006000C40F0FF00C5F828014D
:100BE00001E0C5F82811BDE87040FFF7ABBF000079
:100BF00000400740054AD2F8241100F0030021F418
:100C0000405141EA0030C2F82401704700400740DB
:100C100010B50E20FFF70EFF0F20FFF70BFF10207F
:100C2000FFF708FF0B20FFF705FF0B24204600F01D
:100C3000C5F82046BDE8104000F0D2B870B50D46AA
:100C40000446FFF707FF0246606980B2401C684314
:100C5000B2FBF0F14808A1EB5101891E801E01F0A2
:100C6000070100F0070041EA0010606270BDFF223A
:100C70008A81502242600A8942B10022897B42EA7D
:100C80004101C9B281620221016270470122F5E788
:100C9000F0B54268D30603D505228A81102204E00C
:100CA000530604D503228A814022426033E0D307F1
:100CB0004FF0010238D043680025C3F342030424F7
:100CC0000226052B30D2DFE803F02603102B2D007F
:100CD000866A4B685F1C4F601E704B895B1E1B044D
:100CE0001B0C4B8115D0026215E00B8943B10B68D8
:100CF0005C1C0C601B7883620B895B1E0B81F2E726
:100D00004B8933B18B7B02EB4302D2B28262066223
:100D100001E08D8104628889FF2807D00120F0BDA1
:100D20008E81F7E78C81F5E78A81F7E70020F0BD37
:100D300010B52D20FFF77EFE2D24204600F03EF852
:100D40002046BDE8104000F04BB870B500230AE023
:100D500051F82340E6B2C4F3072500EBC616240C75
:100D600046F825405B1C9342F2D370BD00F01F0192
:100D7000C009820004481044D0F8C02101238B40F0
:100D80009A43C0F8C0217047008003400207520E0A
:100D900000098300054810B518440368FF249440F7
:100DA000A34391401943016010BD0000008003403F
:100DB00002EB4111C9B2FFF7E9BF00000749012367
:100DC000202805D38A6C203883401A438A647047F0
:100DD0004A6C83401A434A64704700000040074051
:100DE00007490123202805D38A6C203883409A4381
:100DF0008A6470474A6C83409A434A647047000093
:100E00000040074010B50446FFF7D8FF2046BDE874
:100E10001040FFF7E5BF0000044BD3F80812044A66
:100E2000114010400843C3F80802704700400740D3
:100E300078FFFF01044BD3F80812044A1140104018
:100E40008143C3F8081270470040074078FFFF0154
:100E500038B54FF40010FFF7EDFF00204FF400719C
:100E60000090401C00908842FBDB114C0120C4F82C
:100E7000A00085052846FFF7CFFF0521022060F37B
:100E80009F11C4F898112846FFF7D4FFD4F89C01AD
:100E9000C0F300000028F9D00120C4F8C0000220EF
:100EA000FFF7A8FEBDE838400620FFF76BBE000044
:100EB0000040074010B5044600F08AF8FFF7BAFD7D
:100EC0000748844201D1312005E00648844201D11F
:100ED000322000E03320BDE81040FFF793BF000050
:100EE000000004400040044010B50346002003E029
:100EF00011F8014BDC61401C904202DA9C686407E7
:100F0000F6D410BDF0B514460D460746002607E09E
:100F1000224629463846FFF7E7FF241A06440544CF
:100F2000002CF5DC3046F0BD70B50C460546FFF7E9
:100F300009FE2101B0FBF1F1491E296270BD0000DC
:100F400001490248FFF7A4BE54000002000005401A
:100F500010B5FFF76DF900F0BBFB18B104494FF075
:100F600080500860BDE810400020FFF768B900001D
:100F700004ED00E010B5FFF7C3FD0149086010BDA6
:100F80004C000002FFF740BD30BFFDE709490120DA
:100F9000096809B1002070470749CA69002AF9D1D8
:100FA000044A896828321268491E8A42F3D1022015
:100FB000704700002C010002040000024FF0FF30D7
:100FC000704710B5C0B2FFF72BFD002010BD000028
:100FD0000549884201D1312070470449884201D136
:100FE0003220704733207047000004400040044026
:100FF0001FB50A480024046000F084F80120CDE900
:10100000000402940023802205A10848039400F004
:10101000A1FA00F031FA04B0012010BD0000000276
:10102000765461736B49326300000000B113000015
:1010300070B5134E134D1FE000F04AFA306820B12E
:10104000002400F09FFBBCB901E00124F9E700F0A7
:10105000F5F8F068C468201D00F0C2F8A868401ECA
:10106000A8606868401E686000F0F6F8206B00F029
:10107000FDF8204600F0FAF868680028DCD170BD61
:10108000400100020400000206480168C96A09B173
:1010900000207047044909680129F9D8816AC068AD
:1010A000081A704704000002640000020C4CFFF7AD
:1010B000BFFF2068012801D900F06EF900F0A2F806
:1010C000FFF7E2FF0228F2D300F002FAFFF7DCFF9D
:1010D000022801D300F0FAF800F054FBE7E7000023
:1010E000640000020648016B096829B1016BC968F8
:1010F000C9684968816270474FF0FF31FAE7000024
:101100000400000210B5FFF735FFFFF703FC0021D4
:101110000846FFF723FC00210120FFF71FFC0021F8
:101120000220FFF71BFC194980208865C8658420D0
:10113000FFF71CFE8320FFF719FE154C2046FFF732
:10114000F7FD2721616113492046FFF777FD2168EC
:1011500001F01F0141F0010121604FF0E0214FF04B
:1011600080730022C1F800310B480A240068B0FBEC
:10117000F4F0401E984207D24861084BE02083F803
:10118000140D8A610720086110BD000000800F4027
:1011900000000540A08601004C0000020FE000E0C6
:1011A000FFF746F8FEE710B5044600F091F9204637
:1011B000FFF76AF8044600F0E5FA204610BD00008B
:1011C00010B5031F4FF080741C601B1F1960191F9E
:1011D000024B0B60143940380A6010BDA1110000A9
:1011E000D0E9013201699A60D0E901235A604A6866
:1011F000824201D182684A60002202610868401E72
:101200000860704730BF704700F108014FF0FF32AF
:10121000C0E90112C1600161002101607047002135
:101220000161704742684A6093688B6093685960B7
:10123000916008610168491C0160704710B5FEF7B4
:10124000F7FF04480168491C0160BFF34F8FBFF3EB
:101250006F8F10BD3C00000203490868401E086003
:1012600001D1FEF7ECBF70473C00000210B504004E
:1012700008D000F02DF92046FFF735F8BDE8104002
:1012800000F080BA10BD000010B50E484FF47A731C
:101290000D4A00686FF07F44B0FBF3F15160B4FB7E
:1012A000F1F19160B0FBF0F12D24B4FBF1F1D160CC
:1012B000B0FBF3F14FF0E020491E416107210161CD
:1012C00010BD00004C0000023C0000022DE9F0417E
:1012D000304E0446B068844200D904464FF0E027FF
:1012E000386920F001003861B9697268601E02FB3C
:1012F0000015F068854200D92D1A72B6FFF746FE38
:1013000008B37D610022BA61386940F0010038619C
:1013100024B1BFF34F8F30BFBFF36F8F386920F018
:101320000101396162B6C00319D5B8697168281A1C
:10133000081AF368401E984201D3884200D9481E1B
:101340007861641E15E0B8697861386940F0010081
:1013500038617068401E786162B6BDE8F0817068DF
:10136000B9694443611AB1FBF0F4631C4343581A52
:101370007861BA61FFF762FF386940F001003861B7
:10138000204600F09DF87068401E7861BDE8F0418D
:10139000FFF762BF3C00000204494FF08050086034
:1013A000BFF34F8FBFF36F8F7047000004ED00E075
:1013B0001CB51B4D1B4C00268DF804604927A773F4
:1013C0000122A68102212281618101A86B46C4E924
:1013D000000314492846FFF74AFC5120A86000E0AA
:1013E00030BFA089FF28FBD05120E860A18929B136
:1013F0000DA0FFF717F8012108460DE09DF8010048
:10140000000601D5052200E000229DF800100EA084
:10141000FFF708F801210020FFF7A0FACCE7000051
:1014200000000540540000024572726F722025646E
:101430002072656164696E672074656D70657261A4
:10144000747572652E0D0A0054656D706572617455
:101450007572652072656164206F7665722049320D
:10146000432069732025642E2564206465677265B6
:10147000657320432E0D0A001FB5002400940194CB
:101480000294234680220AA10B48039400F062F8DC
:1014900001280BD1FEF7CCFE0848611E81620121B4
:1014A0004161C460BDE81F4000F03CB81FBD0000B2
:1014B00049444C4500000000AD100000040000024B
:1014C0000249CA681044C860704700000400000266
:1014D0000248C16A491CC162704700000400000252
:1014E0000E4AD06A10B10120D06170470020D0614F
:1014F00010690B49B0FA80F0C0F11F0000EB8000CA
:1015000001EB800000F1080341684968416099429D
:1015100001D149684160C86810607047040000024A
:1015200064000002094810B5016841F0787101605B
:10153000016841F060410160FFF7A6FE0449002008
:101540000860FEF743FE002010BD000020ED00E023
:101550003C0000022DE9FF5F8A46DDE90F90910013
:101560000E9E9B461546884610B90846FFF71BFE9F
:1015700007000FD06020FFF716FE040006D0A5225A
:10158000414638462763FEF7C9FF04E03846FFF7B7
:101590006DFE00E00024002C7DD06FF0030000EB16
:1015A0008500216B3546084420F00708514600208D
:1015B00022180B5C82F834300A5C12B1401C1428EB
:1015C000F6D3002784F84770082D00D30725E5627D
:1015D000C4E91457201DFFF722FE04F11800FFF79D
:1015E0001EFE2461C5F108016462A161A76584F84B
:1015F0005C705A4640460099FFF7E2FD2060B9F161
:10160000000F01D0C9F80040FFF718FE2E4FB86850
:10161000401CB8603868DFF8B48010B1786940B316
:101620002CE03C60B868012828D1002505EB850135
:1016300008EB8100FFF7E8FD6D1C082DF6D3234869
:10164000A030FFF7E1FD2148B430FFF7DDFD1F4872
:10165000C830FFF7D9FD1D48DC30FFF7D5FD1B482A
:10166000F030FFF7D1FD1948A030386314307863AB
:1016700004E03868C06AB04200D83C60786A012152
:10168000401C7862A064E06A3A6981401143396184
:1016900000EB800100E013E008EB8100211DFFF763
:1016A000C1FD0124FFF7D8FD786928B13868C06A08
:1016B000B04201D2FFF770FE04B02046BDE8F09FB3
:1016C0004FF0FF34F8E7000004000002640000025D
:1016D0002DE9F041294F0025F86A40B1B869401C56
:1016E000B861F86900B101252846BDE8F081F868C5
:1016F000401CF860FE6846B9386B796B39637863D3
:10170000386A401C3862FFF7EDFCB86ADFF8708079
:10171000864209D3386B006880B1386BC068C468F2
:10172000606886420DD2B8623868C06A00EB8001FA
:1017300058F821000128D4D90125D2E74FF0FF3015
:10174000F1E7201DFFF74CFDA06A18B104F1180065
:10175000FFF746FDE06A01213A6981401143396192
:1017600000EB800108EB8100211DFFF75BFDE06AC3
:101770003968C96A8842CDD30125CBE7040000024D
:10178000640000022DE9F0470027FFF757FD234DC5
:10179000E86A401EE862E86AD0BBA86820490126D2
:1017A000B0B3A1F1C8098846D8F80010E9B1D8F85B
:1017B0000C00C46804F11800FFF712FD201DFFF7AC
:1017C0000FFDE06A2A6906FA00F11143296100EB76
:1017D000800109EB8100211DFFF724FDE06A2968E3
:1017E000C96A8842E0D3EE61DEE7A86938B909E04A
:1017F000FFF76EFF00B1EE61A869401EA861A869FD
:101800000028F5D1E869012802D10127FFF7C4FDBE
:10181000FFF722FD3846BDE8F08700000400000213
:101820002C010002001BB70000800000190301001A
:101830000001010101010104060807050102040875
:1018400010000000705A016800900000001980002C
:10185000000380000101800000028000001E800063
:101860000011800000198000010180000017800035
:1018700000168000000B8000001F800001030000A4
:101880000004000000050000000700000008000040
:1018900000090000000A000001048000010580002A
:1018A000010680000107800001088000000D800013
:1018B00000128000000B8000001F8000010B8800D8
:1018C000E018000000000002540000003801000091
:1018D0003419000054000002741900005401000083
:1018E00000000000000000000000000000000000F8
:1018F00000000000000000000000000000000000E8
:1019000000000000000000000000000000000000D7
:10191000000000000000000000000000AAAAAAAA1F
:1019200000000000000000000000000000000000B7
:0419300000000000B3
:04000005000000FDFA
:00000001FF
